{
  "contractName": "SimpleStorage",
  "abi": [
    {
      "anonymous": false,
      "inputs": [
        {
          "indexed": false,
          "internalType": "string",
          "name": "ipfsHash",
          "type": "string"
        }
      ],
      "name": "createIpfsHash",
      "type": "event"
    },
    {
      "inputs": [
        {
          "internalType": "uint256",
          "name": "",
          "type": "uint256"
        }
      ],
      "name": "IpfsHash",
      "outputs": [
        {
          "internalType": "string",
          "name": "_ipfsHash",
          "type": "string"
        }
      ],
      "stateMutability": "view",
      "type": "function"
    },
    {
      "inputs": [
        {
          "internalType": "string",
          "name": "_ipfsHash",
          "type": "string"
        }
      ],
      "name": "set",
      "outputs": [],
      "stateMutability": "nonpayable",
      "type": "function"
    },
    {
      "inputs": [],
      "name": "get",
      "outputs": [
        {
          "internalType": "string",
          "name": "",
          "type": "string"
        }
      ],
      "stateMutability": "view",
      "type": "function"
    },
    {
      "inputs": [],
      "name": "arraylength",
      "outputs": [
        {
          "internalType": "uint256",
          "name": "",
          "type": "uint256"
        }
      ],
      "stateMutability": "view",
      "type": "function"
    }
  ],
  "bytecode": "0x608060405234801561001057600080fd5b506106e0806100206000396000f3fe608060405234801561001057600080fd5b506004361061004c5760003560e01c80634ed3885e146100515780636d13997c1461010c5780636d4ce63c1461012a578063b4e441fd146101ad575b600080fd5b61010a6004803603602081101561006757600080fd5b810190808035906020019064010000000081111561008457600080fd5b82018360208201111561009657600080fd5b803590602001918460018302840111640100000000831117156100b857600080fd5b91908080601f016020809104026020016040519081016040528093929190818152602001838380828437600081840152601f19601f820116905080830192505050505050509192919290505050610254565b005b610114610417565b6040518082815260200191505060405180910390f35b610132610424565b6040518080602001828103825283818151815260200191508051906020019080838360005b83811015610172578082015181840152602081019050610157565b50505050905090810190601f16801561019f5780820380516001836020036101000a031916815260200191505b509250505060405180910390f35b6101d9600480360360208110156101c357600080fd5b81019080803590602001909291905050506104c6565b6040518080602001828103825283818151815260200191508051906020019080838360005b838110156102195780820151818401526020810190506101fe565b50505050905090810190601f1680156102465780820380516001836020036101000a031916815260200191505b509250505060405180910390f35b806000908051906020019061026a929190610585565b506001604051806020016040528060008054600181600116156101000203166002900480601f01602080910402602001604051908101604052809291908181526020018280546001816001161561010002031660029004801561030e5780601f106102e35761010080835404028352916020019161030e565b820191906000526020600020905b8154815290600101906020018083116102f157829003601f168201915b5050505050815250908060018154018082558091505060019003906000526020600020016000909190919091506000820151816000019080519060200190610357929190610605565b5050507f18decc89b51efbb68d38200b6d299ee6bef7fa17ecc6f566a180951332c6cbc2600060405180806020018281038252838181546001816001161561010002031660029004815260200191508054600181600116156101000203166002900480156104065780601f106103db57610100808354040283529160200191610406565b820191906000526020600020905b8154815290600101906020018083116103e957829003601f168201915b50509250505060405180910390a150565b6000600180549050905090565b606060008054600181600116156101000203166002900480601f0160208091040260200160405190810160405280929190818152602001828054600181600116156101000203166002900480156104bc5780601f10610491576101008083540402835291602001916104bc565b820191906000526020600020905b81548152906001019060200180831161049f57829003601f168201915b5050505050905090565b600181815481106104d357fe5b90600052602060002001600091509050806000018054600181600116156101000203166002900480601f01602080910402602001604051908101604052809291908181526020018280546001816001161561010002031660029004801561057b5780601f106105505761010080835404028352916020019161057b565b820191906000526020600020905b81548152906001019060200180831161055e57829003601f168201915b5050505050905081565b828054600181600116156101000203166002900490600052602060002090601f016020900481019282601f106105c657805160ff19168380011785556105f4565b828001600101855582156105f4579182015b828111156105f35782518255916020019190600101906105d8565b5b5090506106019190610685565b5090565b828054600181600116156101000203166002900490600052602060002090601f016020900481019282601f1061064657805160ff1916838001178555610674565b82800160010185558215610674579182015b82811115610673578251825591602001919060010190610658565b5b5090506106819190610685565b5090565b6106a791905b808211156106a357600081600090555060010161068b565b5090565b9056fea26469706673582212206994074e8b50d1ddb30173f5f805a7888aecf70de8e87cb9d480173104aa642864736f6c63430006020033",
  "source": "pragma solidity 0.6.2;\n\ncontract SimpleStorage {\n  string ipfsHash;\n\n  struct Ipfs {\n    string _ipfsHash;\n  }\n\n  event createIpfsHash (\n    string ipfsHash\n  );\n\n  Ipfs[] public IpfsHash;\n\n  function set(string memory _ipfsHash) public {\n    ipfsHash = _ipfsHash;\n    IpfsHash.push(Ipfs(ipfsHash));\n    emit createIpfsHash(ipfsHash);\n  }\n\n  function get() public view returns (string memory) {\n    return ipfsHash;\n  }\n\n  function arraylength() public view returns (uint) {\n    return IpfsHash.length;\n  }\n}",
  "sourcePath": "/Users/satouhiroki/Documents/GitHub/Image_Guardian_User/contracts/SimpleStorage.sol",
  "compiler": {
    "name": "solc",
    "version": "0.6.2+commit.bacdbe57.Emscripten.clang"
  },
  "schemaVersion": "3.3.3",
  "updatedAt": "2021-01-09T10:36:26.053Z",
  "devdoc": {
    "methods": {}
  },
  "userdoc": {
    "methods": {}
  }
}